:020000020000FC
:1000000000C00FE50DBF02E00EBF0FEF07BB08BB3E
:100010001FD0912F2DD0FCCF00EF01BB8FE00FE060
:1000200002BB00B30827E9F70FEF94E08894079527
:10003000802F02BB10B3101729F026D010B3012770
:1000400031F40895082F9A95091789F3EDCF089593
:10005000E3DF90E0EAEAF0E0C895002D011731F007
:10006000319693959031C1F710E20895192F0895B4
:1000700000E008BB10D00FEF08BB0DD0903009F4A2
:1000800093959A95A9F7089560E46FEF6A95F1F753
:100090005A95E1F7089542E05FEF6FEF6A95F1F747
:1000A0005A95E1F74A95D1F70895E7EEDEBEEDDD0A
:0A00B000BDEBDBBB7E7D7B77B7D78D
:00000001FF
