:1000000010C022C021C020C01FC01EC01DC01CC007
:100010001BC01AC019C018C017C016C015C014C024
:1000200013C011241FBECFE5D2E0DEBFCDBF10E06C
:10003000A0E6B0E0E8E6F1E002C005900D92A0383D
:10004000B107D9F780D08EC0DBCF8FE082BB80B301
:100050008F30E9F740E850E020E030E0CA01022E9E
:1000600002C0959587950A94E2F7809582BB90B37C
:10007000891719F090B3891306C02F5F3F4F2430C2
:10008000310561F7E9CF892F0895DFDF9091700086
:10009000891741F0E1E7F0E021E030E09191891328
:1000A00005C002C020E030E0822F08952F5F3F4F4F
:1000B0002031310599F780E108958FE097E20197AB
:1000C000F1F700C000008091680085BB2CE231E0B0
:1000D00081E090E011C0EFE0F7E23197F1F700C066
:1000E0000000FC01E859FF4F408145BB0196883074
:1000F000910511F480E090E02150310961F70895F5
:100100008FE097E20197F1F700C000008091600056
:1001100085BB2CE231E081E090E011C0EFE0F7E236
:100120003197F1F700C00000FC01E05AFF4F408119
:1001300045BB01968830910511F480E090E0215094
:10014000310961F7089515BA8FEF84BB12BA80EFB9
:1001500081BB9BDF8F3011F4D3DFFBCF8B30C9F72E
:08016000ACDFF7CFF894FFCFEC
:100168000901030206040C08080C0406020301092D
:10017800E7EEDEBEEDDDBDEBDBBB7E7D7B77B7D783
:00000001FF
