:1000000013C02DC02CC02BC02AC029C028C027C0B7
:1000100026C025C024C023C022C021C020C01FC0CC
:100020001EC00C140421222011241FBECFE5D2E0F3
:10003000DEBFCDBF10E0A0E6B0E0E2EAF1E002C032
:1000400005900D92A236B107D9F720E0A2E6B0E004
:1000500001C01D92A636B207E1F702D0A0C0D0CFF2
:100060008FEF87BB80916000809588BB22E230E0F3
:1000700085E290E0F9014491642F70E07093610093
:1000800060936000409548BBFFEF47EA51E6F150AE
:1000900040405040E1F700C000001092650010920F
:1000A00064001092630010926200E0E0F0E0ED5D09
:1000B000FF4FE4914E2F50E0509361004093600059
:1000C000E095E8BB6FEFE3ECF9E06150E040F04011
:1000D000E1F700C00000E0916200F091630031960A
:1000E000F0936300E0936200E230F10504F3409185
:1000F0006400509165004F5F5F4F509365004093DF
:100100006400453051056CF2FC014491642F70E0AD
:100110007093610060936000409548BBFFEF47EA31
:1001200051E6F15040405040E1F700C0000010920D
:100130006500109264001092630010926200E0E08B
:10014000F0E0EA5DFF4FE4914E2F50E050936100E4
:1001500040936000E095E8BB6FEFE3ECF9E061509D
:10016000E040F040E1F700C00000E0916200F09153
:1001700063003196F0936300E0936200E230F10592
:1001800004F340916400509165004F5F5F4F5093BE
:10019000650040936400453051056CF26BCFF894D4
:0201A000FFCF8F
:0201A2000C004F
:00000001FF
