S012000045786572636973655F312E737265634A
S113000010C017C016C015C014C013C012C011C050
S113001010C00FC00EC00DC00CC00BC00AC009C078
S113002008C011241FBECFE5D2E0DEBFCDBF02D091
S113003031C0E6CF8FEF87BB21E030E081E090E074
S113004071E060E0F0E0E0E0482F409548BB211506
S1130050310559F0880F991F811541E0940781F407
S11300602F2F3E2F80E490E00BC095958795572F56
S1130070462F8130910511F05F2F4E2F252F342FFD
S11300805FEFA1EE44E05150A0404040E1F700C0D2
S10B00900000DACFF894FFCF61
S9030000FC
