S02100005365636F6E645F417474656D70745F45786572636973655F322E7372656341
S113000013C02DC02CC02BC02AC029C028C027C0B3
S113001026C025C024C023C022C021C020C01FC0C8
S11300201EC00C140421222011241FBECFE5D2E0EF
S1130030DEBFCDBF10E0A0E6B0E0EAE9F1E002C027
S113004005900D92A236B107D9F720E0A2E6B0E000
S113005001C01D92A636B207E1F702D09CC0D0CFF2
S11300608FEF87BB80916000809588BBE2E2F0E06F
S1130070E4918E2F90E09093610080936000E0956E
S1130080E8BB2FEF87EA91E6215080409040E1F7EA
S113009000C000001092650010926400109263008A
S11300A010926200E0E0F0E0ED5DFF4FE4918E2FEE
S11300B090E09093610080936000E095E8BB2FEF9F
S11300C083EC99E0215080409040E1F700C00000AB
S11300D0E0916200F09163003196F0936300E09345
S11300E06200E230F10504F38091640090916500B0
S11300F00196909365008093640005977CF2E5E295
S1130100F0E0E4918E2F90E0909361008093600082
S1130110E095E8BB2FEF87EA91E6215080409040BC
S1130120E1F700C000001092650010926400109284
S1130130630010926200E0E0F0E0EA5DFF4FE491BA
S11301408E2F90E09093610080936000E095E8BB6F
S11301502FEF83EC99E0215080409040E1F700C0FC
S11301600000E0916200F09163003196F093630027
S1130170E0936200E230F10504F380916400909111
S113018065000196909365008093640005977CF266
S10D019080E090E00895F894FFCF9A
S105019A0C0053
S9030000FC
